{
  "contractName": "NFTMarketplace",
  "abi": [
    {
      "inputs": [],
      "stateMutability": "nonpayable",
      "type": "constructor"
    },
    {
      "anonymous": false,
      "inputs": [
        {
          "indexed": true,
          "internalType": "address",
          "name": "owner",
          "type": "address"
        },
        {
          "indexed": true,
          "internalType": "address",
          "name": "approved",
          "type": "address"
        },
        {
          "indexed": true,
          "internalType": "uint256",
          "name": "tokenId",
          "type": "uint256"
        }
      ],
      "name": "Approval",
      "type": "event"
    },
    {
      "anonymous": false,
      "inputs": [
        {
          "indexed": true,
          "internalType": "address",
          "name": "owner",
          "type": "address"
        },
        {
          "indexed": true,
          "internalType": "address",
          "name": "operator",
          "type": "address"
        },
        {
          "indexed": false,
          "internalType": "bool",
          "name": "approved",
          "type": "bool"
        }
      ],
      "name": "ApprovalForAll",
      "type": "event"
    },
    {
      "anonymous": false,
      "inputs": [
        {
          "indexed": true,
          "internalType": "address",
          "name": "from",
          "type": "address"
        },
        {
          "indexed": true,
          "internalType": "address",
          "name": "to",
          "type": "address"
        },
        {
          "indexed": true,
          "internalType": "uint256",
          "name": "tokenId",
          "type": "uint256"
        }
      ],
      "name": "Transfer",
      "type": "event"
    },
    {
      "inputs": [
        {
          "internalType": "address",
          "name": "to",
          "type": "address"
        },
        {
          "internalType": "uint256",
          "name": "tokenId",
          "type": "uint256"
        }
      ],
      "name": "approve",
      "outputs": [],
      "stateMutability": "nonpayable",
      "type": "function"
    },
    {
      "inputs": [
        {
          "internalType": "address",
          "name": "owner",
          "type": "address"
        }
      ],
      "name": "balanceOf",
      "outputs": [
        {
          "internalType": "uint256",
          "name": "",
          "type": "uint256"
        }
      ],
      "stateMutability": "view",
      "type": "function",
      "constant": true
    },
    {
      "inputs": [
        {
          "internalType": "uint256",
          "name": "tokenId",
          "type": "uint256"
        }
      ],
      "name": "getApproved",
      "outputs": [
        {
          "internalType": "address",
          "name": "",
          "type": "address"
        }
      ],
      "stateMutability": "view",
      "type": "function",
      "constant": true
    },
    {
      "inputs": [
        {
          "internalType": "address",
          "name": "owner",
          "type": "address"
        },
        {
          "internalType": "address",
          "name": "operator",
          "type": "address"
        }
      ],
      "name": "isApprovedForAll",
      "outputs": [
        {
          "internalType": "bool",
          "name": "",
          "type": "bool"
        }
      ],
      "stateMutability": "view",
      "type": "function",
      "constant": true
    },
    {
      "inputs": [],
      "name": "name",
      "outputs": [
        {
          "internalType": "string",
          "name": "",
          "type": "string"
        }
      ],
      "stateMutability": "view",
      "type": "function",
      "constant": true
    },
    {
      "inputs": [
        {
          "internalType": "uint256",
          "name": "tokenId",
          "type": "uint256"
        }
      ],
      "name": "ownerOf",
      "outputs": [
        {
          "internalType": "address",
          "name": "",
          "type": "address"
        }
      ],
      "stateMutability": "view",
      "type": "function",
      "constant": true
    },
    {
      "inputs": [
        {
          "internalType": "address",
          "name": "from",
          "type": "address"
        },
        {
          "internalType": "address",
          "name": "to",
          "type": "address"
        },
        {
          "internalType": "uint256",
          "name": "tokenId",
          "type": "uint256"
        }
      ],
      "name": "safeTransferFrom",
      "outputs": [],
      "stateMutability": "nonpayable",
      "type": "function"
    },
    {
      "inputs": [
        {
          "internalType": "address",
          "name": "from",
          "type": "address"
        },
        {
          "internalType": "address",
          "name": "to",
          "type": "address"
        },
        {
          "internalType": "uint256",
          "name": "tokenId",
          "type": "uint256"
        },
        {
          "internalType": "bytes",
          "name": "data",
          "type": "bytes"
        }
      ],
      "name": "safeTransferFrom",
      "outputs": [],
      "stateMutability": "nonpayable",
      "type": "function"
    },
    {
      "inputs": [
        {
          "internalType": "address",
          "name": "operator",
          "type": "address"
        },
        {
          "internalType": "bool",
          "name": "approved",
          "type": "bool"
        }
      ],
      "name": "setApprovalForAll",
      "outputs": [],
      "stateMutability": "nonpayable",
      "type": "function"
    },
    {
      "inputs": [
        {
          "internalType": "bytes4",
          "name": "interfaceId",
          "type": "bytes4"
        }
      ],
      "name": "supportsInterface",
      "outputs": [
        {
          "internalType": "bool",
          "name": "",
          "type": "bool"
        }
      ],
      "stateMutability": "view",
      "type": "function",
      "constant": true
    },
    {
      "inputs": [],
      "name": "symbol",
      "outputs": [
        {
          "internalType": "string",
          "name": "",
          "type": "string"
        }
      ],
      "stateMutability": "view",
      "type": "function",
      "constant": true
    },
    {
      "inputs": [
        {
          "internalType": "uint256",
          "name": "tokenId",
          "type": "uint256"
        }
      ],
      "name": "tokenURI",
      "outputs": [
        {
          "internalType": "string",
          "name": "",
          "type": "string"
        }
      ],
      "stateMutability": "view",
      "type": "function",
      "constant": true
    },
    {
      "inputs": [
        {
          "internalType": "address",
          "name": "from",
          "type": "address"
        },
        {
          "internalType": "address",
          "name": "to",
          "type": "address"
        },
        {
          "internalType": "uint256",
          "name": "tokenId",
          "type": "uint256"
        }
      ],
      "name": "transferFrom",
      "outputs": [],
      "stateMutability": "nonpayable",
      "type": "function"
    },
    {
      "inputs": [
        {
          "internalType": "string",
          "name": "tokenURI",
          "type": "string"
        }
      ],
      "name": "mintToken",
      "outputs": [
        {
          "internalType": "uint256",
          "name": "",
          "type": "uint256"
        }
      ],
      "stateMutability": "payable",
      "type": "function",
      "payable": true
    }
  ],
  "bytecode": "0x60806040523480156200001157600080fd5b506040518060400160405280600481526020017f4d4e4654000000000000000000000000000000000000000000000000000000008152506040518060400160405280600481526020017f4d4e46540000000000000000000000000000000000000000000000000000000081525081600090816200008f919062000324565b508060019081620000a1919062000324565b5050506200040b565b600081519050919050565b7f4e487b7100000000000000000000000000000000000000000000000000000000600052604160045260246000fd5b7f4e487b7100000000000000000000000000000000000000000000000000000000600052602260045260246000fd5b600060028204905060018216806200012c57607f821691505b602082108103620001425762000141620000e4565b5b50919050565b60008190508160005260206000209050919050565b60006020601f8301049050919050565b600082821b905092915050565b600060088302620001ac7fffffffffffffffffffffffffffffffffffffffffffffffffffffffffffffffff826200016d565b620001b886836200016d565b95508019841693508086168417925050509392505050565b6000819050919050565b6000819050919050565b600062000205620001ff620001f984620001d0565b620001da565b620001d0565b9050919050565b6000819050919050565b6200022183620001e4565b6200023962000230826200020c565b8484546200017a565b825550505050565b600090565b6200025062000241565b6200025d81848462000216565b505050565b5b8181101562000285576200027960008262000246565b60018101905062000263565b5050565b601f821115620002d4576200029e8162000148565b620002a9846200015d565b81016020851015620002b9578190505b620002d1620002c8856200015d565b83018262000262565b50505b505050565b600082821c905092915050565b6000620002f960001984600802620002d9565b1980831691505092915050565b6000620003148383620002e6565b9150826002028217905092915050565b6200032f82620000aa565b67ffffffffffffffff8111156200034b576200034a620000b5565b5b62000357825462000113565b6200036482828562000289565b600060209050601f8311600181146200039c576000841562000387578287015190505b62000393858262000306565b86555062000403565b601f198416620003ac8662000148565b60005b82811015620003d657848901518255600182019150602085019450602081019050620003af565b86831015620003f65784890151620003f2601f891682620002e6565b8355505b6001600288020188555050505b505050505050565b612b53806200041b6000396000f3fe6080604052600436106100dd5760003560e01c80636352211e1161007f578063a22cb46511610059578063a22cb465146102d7578063b88d4fde14610300578063c87b56dd14610329578063e985e9c514610366576100dd565b80636352211e1461023257806370a082311461026f57806395d89b41146102ac576100dd565b8063095ea7b3116100bb578063095ea7b31461018757806323b872dd146101b057806333eba49a146101d957806342842e0e14610209576100dd565b806301ffc9a7146100e257806306fdde031461011f578063081812fc1461014a575b600080fd5b3480156100ee57600080fd5b5061010960048036038101906101049190611a55565b6103a3565b6040516101169190611a9d565b60405180910390f35b34801561012b57600080fd5b50610134610485565b6040516101419190611b48565b60405180910390f35b34801561015657600080fd5b50610171600480360381019061016c9190611ba0565b610517565b60405161017e9190611c0e565b60405180910390f35b34801561019357600080fd5b506101ae60048036038101906101a99190611c55565b61055d565b005b3480156101bc57600080fd5b506101d760048036038101906101d29190611c95565b610674565b005b6101f360048036038101906101ee9190611e1d565b6106d4565b6040516102009190611e75565b60405180910390f35b34801561021557600080fd5b50610230600480360381019061022b9190611c95565b610715565b005b34801561023e57600080fd5b5061025960048036038101906102549190611ba0565b610735565b6040516102669190611c0e565b60405180910390f35b34801561027b57600080fd5b5061029660048036038101906102919190611e90565b6107bb565b6040516102a39190611e75565b60405180910390f35b3480156102b857600080fd5b506102c1610872565b6040516102ce9190611b48565b60405180910390f35b3480156102e357600080fd5b506102fe60048036038101906102f99190611ee9565b610904565b005b34801561030c57600080fd5b5061032760048036038101906103229190611fca565b61091a565b005b34801561033557600080fd5b50610350600480360381019061034b9190611ba0565b61097c565b60405161035d9190611b48565b60405180910390f35b34801561037257600080fd5b5061038d6004803603810190610388919061204d565b610a8e565b60405161039a9190611a9d565b60405180910390f35b60007f80ac58cd000000000000000000000000000000000000000000000000000000007bffffffffffffffffffffffffffffffffffffffffffffffffffffffff1916827bffffffffffffffffffffffffffffffffffffffffffffffffffffffff1916148061046e57507f5b5e139f000000000000000000000000000000000000000000000000000000007bffffffffffffffffffffffffffffffffffffffffffffffffffffffff1916827bffffffffffffffffffffffffffffffffffffffffffffffffffffffff1916145b8061047e575061047d82610b22565b5b9050919050565b606060008054610494906120bc565b80601f01602080910402602001604051908101604052809291908181526020018280546104c0906120bc565b801561050d5780601f106104e25761010080835404028352916020019161050d565b820191906000526020600020905b8154815290600101906020018083116104f057829003601f168201915b5050505050905090565b600061052282610b8c565b6004600083815260200190815260200160002060009054906101000a900473ffffffffffffffffffffffffffffffffffffffff169050919050565b600061056882610735565b90508073ffffffffffffffffffffffffffffffffffffffff168373ffffffffffffffffffffffffffffffffffffffff16036105d8576040517f08c379a00000000000000000000000000000000000000000000000000000000081526004016105cf9061215f565b60405180910390fd5b8073ffffffffffffffffffffffffffffffffffffffff166105f7610bd7565b73ffffffffffffffffffffffffffffffffffffffff161480610626575061062581610620610bd7565b610a8e565b5b610665576040517f08c379a000000000000000000000000000000000000000000000000000000000815260040161065c906121f1565b60405180910390fd5b61066f8383610bdf565b505050565b61068561067f610bd7565b82610c98565b6106c4576040517f08c379a00000000000000000000000000000000000000000000000000000000081526004016106bb90612283565b60405180910390fd5b6106cf838383610d2d565b505050565b60006106e06008611026565b6106ea6007611026565b60006106f6600861103c565b9050610702338261104a565b61070c8184611068565b80915050919050565b6107308383836040518060200160405280600081525061091a565b505050565b600080610741836110d5565b9050600073ffffffffffffffffffffffffffffffffffffffff168173ffffffffffffffffffffffffffffffffffffffff16036107b2576040517f08c379a00000000000000000000000000000000000000000000000000000000081526004016107a9906122ef565b60405180910390fd5b80915050919050565b60008073ffffffffffffffffffffffffffffffffffffffff168273ffffffffffffffffffffffffffffffffffffffff160361082b576040517f08c379a000000000000000000000000000000000000000000000000000000000815260040161082290612381565b60405180910390fd5b600360008373ffffffffffffffffffffffffffffffffffffffff1673ffffffffffffffffffffffffffffffffffffffff168152602001908152602001600020549050919050565b606060018054610881906120bc565b80601f01602080910402602001604051908101604052809291908181526020018280546108ad906120bc565b80156108fa5780601f106108cf576101008083540402835291602001916108fa565b820191906000526020600020905b8154815290600101906020018083116108dd57829003601f168201915b5050505050905090565b61091661090f610bd7565b8383611112565b5050565b61092b610925610bd7565b83610c98565b61096a576040517f08c379a000000000000000000000000000000000000000000000000000000000815260040161096190612283565b60405180910390fd5b6109768484848461127e565b50505050565b606061098782610b8c565b60006006600084815260200190815260200160002080546109a7906120bc565b80601f01602080910402602001604051908101604052809291908181526020018280546109d3906120bc565b8015610a205780601f106109f557610100808354040283529160200191610a20565b820191906000526020600020905b815481529060010190602001808311610a0357829003601f168201915b505050505090506000610a316112da565b90506000815103610a46578192505050610a89565b600082511115610a7b578082604051602001610a639291906123dd565b60405160208183030381529060405292505050610a89565b610a84846112f1565b925050505b919050565b6000600560008473ffffffffffffffffffffffffffffffffffffffff1673ffffffffffffffffffffffffffffffffffffffff16815260200190815260200160002060008373ffffffffffffffffffffffffffffffffffffffff1673ffffffffffffffffffffffffffffffffffffffff16815260200190815260200160002060009054906101000a900460ff16905092915050565b60007f01ffc9a7000000000000000000000000000000000000000000000000000000007bffffffffffffffffffffffffffffffffffffffffffffffffffffffff1916827bffffffffffffffffffffffffffffffffffffffffffffffffffffffff1916149050919050565b610b9581611359565b610bd4576040517f08c379a0000000000000000000000000000000000000000000000000000000008152600401610bcb906122ef565b60405180910390fd5b50565b600033905090565b816004600083815260200190815260200160002060006101000a81548173ffffffffffffffffffffffffffffffffffffffff021916908373ffffffffffffffffffffffffffffffffffffffff160217905550808273ffffffffffffffffffffffffffffffffffffffff16610c5283610735565b73ffffffffffffffffffffffffffffffffffffffff167f8c5be1e5ebec7d5bd14f71427d1e84f3dd0314c0f7b2291e5b200ac8c7c3b92560405160405180910390a45050565b600080610ca483610735565b90508073ffffffffffffffffffffffffffffffffffffffff168473ffffffffffffffffffffffffffffffffffffffff161480610ce65750610ce58185610a8e565b5b80610d2457508373ffffffffffffffffffffffffffffffffffffffff16610d0c84610517565b73ffffffffffffffffffffffffffffffffffffffff16145b91505092915050565b8273ffffffffffffffffffffffffffffffffffffffff16610d4d82610735565b73ffffffffffffffffffffffffffffffffffffffff1614610da3576040517f08c379a0000000000000000000000000000000000000000000000000000000008152600401610d9a90612473565b60405180910390fd5b600073ffffffffffffffffffffffffffffffffffffffff168273ffffffffffffffffffffffffffffffffffffffff1603610e12576040517f08c379a0000000000000000000000000000000000000000000000000000000008152600401610e0990612505565b60405180910390fd5b610e1f838383600161139a565b8273ffffffffffffffffffffffffffffffffffffffff16610e3f82610735565b73ffffffffffffffffffffffffffffffffffffffff1614610e95576040517f08c379a0000000000000000000000000000000000000000000000000000000008152600401610e8c90612473565b60405180910390fd5b6004600082815260200190815260200160002060006101000a81549073ffffffffffffffffffffffffffffffffffffffff02191690556001600360008573ffffffffffffffffffffffffffffffffffffffff1673ffffffffffffffffffffffffffffffffffffffff168152602001908152602001600020600082825403925050819055506001600360008473ffffffffffffffffffffffffffffffffffffffff1673ffffffffffffffffffffffffffffffffffffffff16815260200190815260200160002060008282540192505081905550816002600083815260200190815260200160002060006101000a81548173ffffffffffffffffffffffffffffffffffffffff021916908373ffffffffffffffffffffffffffffffffffffffff160217905550808273ffffffffffffffffffffffffffffffffffffffff168473ffffffffffffffffffffffffffffffffffffffff167fddf252ad1be2c89b69c2b068fc378daa952ba7f163c4a11628f55a4df523b3ef60405160405180910390a461102183838360016113a0565b505050565b6001816000016000828254019250508190555050565b600081600001549050919050565b6110648282604051806020016040528060008152506113a6565b5050565b61107182611359565b6110b0576040517f08c379a00000000000000000000000000000000000000000000000000000000081526004016110a790612597565b60405180910390fd5b806006600084815260200190815260200160002090816110d09190612763565b505050565b60006002600083815260200190815260200160002060009054906101000a900473ffffffffffffffffffffffffffffffffffffffff169050919050565b8173ffffffffffffffffffffffffffffffffffffffff168373ffffffffffffffffffffffffffffffffffffffff1603611180576040517f08c379a000000000000000000000000000000000000000000000000000000000815260040161117790612881565b60405180910390fd5b80600560008573ffffffffffffffffffffffffffffffffffffffff1673ffffffffffffffffffffffffffffffffffffffff16815260200190815260200160002060008473ffffffffffffffffffffffffffffffffffffffff1673ffffffffffffffffffffffffffffffffffffffff16815260200190815260200160002060006101000a81548160ff0219169083151502179055508173ffffffffffffffffffffffffffffffffffffffff168373ffffffffffffffffffffffffffffffffffffffff167f17307eab39ab6107e8899845ad3d59bd9653f200f220920489ca2b5937696c31836040516112719190611a9d565b60405180910390a3505050565b611289848484610d2d565b61129584848484611401565b6112d4576040517f08c379a00000000000000000000000000000000000000000000000000000000081526004016112cb90612913565b60405180910390fd5b50505050565b606060405180602001604052806000815250905090565b60606112fc82610b8c565b60006113066112da565b905060008151116113265760405180602001604052806000815250611351565b8061133084611588565b6040516020016113419291906123dd565b6040516020818303038152906040525b915050919050565b60008073ffffffffffffffffffffffffffffffffffffffff1661137b836110d5565b73ffffffffffffffffffffffffffffffffffffffff1614159050919050565b50505050565b50505050565b6113b08383611656565b6113bd6000848484611401565b6113fc576040517f08c379a00000000000000000000000000000000000000000000000000000000081526004016113f390612913565b60405180910390fd5b505050565b60006114228473ffffffffffffffffffffffffffffffffffffffff16611873565b1561157b578373ffffffffffffffffffffffffffffffffffffffff1663150b7a0261144b610bd7565b8786866040518563ffffffff1660e01b815260040161146d9493929190612988565b6020604051808303816000875af19250505080156114a957506040513d601f19601f820116820180604052508101906114a691906129e9565b60015b61152b573d80600081146114d9576040519150601f19603f3d011682016040523d82523d6000602084013e6114de565b606091505b506000815103611523576040517f08c379a000000000000000000000000000000000000000000000000000000000815260040161151a90612913565b60405180910390fd5b805181602001fd5b63150b7a0260e01b7bffffffffffffffffffffffffffffffffffffffffffffffffffffffff1916817bffffffffffffffffffffffffffffffffffffffffffffffffffffffff191614915050611580565b600190505b949350505050565b60606000600161159784611896565b01905060008167ffffffffffffffff8111156115b6576115b5611cf2565b5b6040519080825280601f01601f1916602001820160405280156115e85781602001600182028036833780820191505090505b509050600082602001820190505b60011561164b578080600190039150507f3031323334353637383961626364656600000000000000000000000000000000600a86061a8153600a858161163f5761163e612a16565b5b049450600085036115f6575b819350505050919050565b600073ffffffffffffffffffffffffffffffffffffffff168273ffffffffffffffffffffffffffffffffffffffff16036116c5576040517f08c379a00000000000000000000000000000000000000000000000000000000081526004016116bc90612a91565b60405180910390fd5b6116ce81611359565b1561170e576040517f08c379a000000000000000000000000000000000000000000000000000000000815260040161170590612afd565b60405180910390fd5b61171c60008383600161139a565b61172581611359565b15611765576040517f08c379a000000000000000000000000000000000000000000000000000000000815260040161175c90612afd565b60405180910390fd5b6001600360008473ffffffffffffffffffffffffffffffffffffffff1673ffffffffffffffffffffffffffffffffffffffff16815260200190815260200160002060008282540192505081905550816002600083815260200190815260200160002060006101000a81548173ffffffffffffffffffffffffffffffffffffffff021916908373ffffffffffffffffffffffffffffffffffffffff160217905550808273ffffffffffffffffffffffffffffffffffffffff16600073ffffffffffffffffffffffffffffffffffffffff167fddf252ad1be2c89b69c2b068fc378daa952ba7f163c4a11628f55a4df523b3ef60405160405180910390a461186f6000838360016113a0565b5050565b6000808273ffffffffffffffffffffffffffffffffffffffff163b119050919050565b600080600090507a184f03e93ff9f4daa797ed6e38ed64bf6a1f01000000000000000083106118f4577a184f03e93ff9f4daa797ed6e38ed64bf6a1f01000000000000000083816118ea576118e9612a16565b5b0492506040810190505b6d04ee2d6d415b85acef81000000008310611931576d04ee2d6d415b85acef8100000000838161192757611926612a16565b5b0492506020810190505b662386f26fc10000831061196057662386f26fc10000838161195657611955612a16565b5b0492506010810190505b6305f5e1008310611989576305f5e100838161197f5761197e612a16565b5b0492506008810190505b61271083106119ae5761271083816119a4576119a3612a16565b5b0492506004810190505b606483106119d157606483816119c7576119c6612a16565b5b0492506002810190505b600a83106119e0576001810190505b80915050919050565b6000604051905090565b600080fd5b600080fd5b60007fffffffff0000000000000000000000000000000000000000000000000000000082169050919050565b611a32816119fd565b8114611a3d57600080fd5b50565b600081359050611a4f81611a29565b92915050565b600060208284031215611a6b57611a6a6119f3565b5b6000611a7984828501611a40565b91505092915050565b60008115159050919050565b611a9781611a82565b82525050565b6000602082019050611ab26000830184611a8e565b92915050565b600081519050919050565b600082825260208201905092915050565b60005b83811015611af2578082015181840152602081019050611ad7565b60008484015250505050565b6000601f19601f8301169050919050565b6000611b1a82611ab8565b611b248185611ac3565b9350611b34818560208601611ad4565b611b3d81611afe565b840191505092915050565b60006020820190508181036000830152611b628184611b0f565b905092915050565b6000819050919050565b611b7d81611b6a565b8114611b8857600080fd5b50565b600081359050611b9a81611b74565b92915050565b600060208284031215611bb657611bb56119f3565b5b6000611bc484828501611b8b565b91505092915050565b600073ffffffffffffffffffffffffffffffffffffffff82169050919050565b6000611bf882611bcd565b9050919050565b611c0881611bed565b82525050565b6000602082019050611c236000830184611bff565b92915050565b611c3281611bed565b8114611c3d57600080fd5b50565b600081359050611c4f81611c29565b92915050565b60008060408385031215611c6c57611c6b6119f3565b5b6000611c7a85828601611c40565b9250506020611c8b85828601611b8b565b9150509250929050565b600080600060608486031215611cae57611cad6119f3565b5b6000611cbc86828701611c40565b9350506020611ccd86828701611c40565b9250506040611cde86828701611b8b565b9150509250925092565b600080fd5b600080fd5b7f4e487b7100000000000000000000000000000000000000000000000000000000600052604160045260246000fd5b611d2a82611afe565b810181811067ffffffffffffffff82111715611d4957611d48611cf2565b5b80604052505050565b6000611d5c6119e9565b9050611d688282611d21565b919050565b600067ffffffffffffffff821115611d8857611d87611cf2565b5b611d9182611afe565b9050602081019050919050565b82818337600083830152505050565b6000611dc0611dbb84611d6d565b611d52565b905082815260208101848484011115611ddc57611ddb611ced565b5b611de7848285611d9e565b509392505050565b600082601f830112611e0457611e03611ce8565b5b8135611e14848260208601611dad565b91505092915050565b600060208284031215611e3357611e326119f3565b5b600082013567ffffffffffffffff811115611e5157611e506119f8565b5b611e5d84828501611def565b91505092915050565b611e6f81611b6a565b82525050565b6000602082019050611e8a6000830184611e66565b92915050565b600060208284031215611ea657611ea56119f3565b5b6000611eb484828501611c40565b91505092915050565b611ec681611a82565b8114611ed157600080fd5b50565b600081359050611ee381611ebd565b92915050565b60008060408385031215611f0057611eff6119f3565b5b6000611f0e85828601611c40565b9250506020611f1f85828601611ed4565b9150509250929050565b600067ffffffffffffffff821115611f4457611f43611cf2565b5b611f4d82611afe565b9050602081019050919050565b6000611f6d611f6884611f29565b611d52565b905082815260208101848484011115611f8957611f88611ced565b5b611f94848285611d9e565b509392505050565b600082601f830112611fb157611fb0611ce8565b5b8135611fc1848260208601611f5a565b91505092915050565b60008060008060808587031215611fe457611fe36119f3565b5b6000611ff287828801611c40565b945050602061200387828801611c40565b935050604061201487828801611b8b565b925050606085013567ffffffffffffffff811115612035576120346119f8565b5b61204187828801611f9c565b91505092959194509250565b60008060408385031215612064576120636119f3565b5b600061207285828601611c40565b925050602061208385828601611c40565b9150509250929050565b7f4e487b7100000000000000000000000000000000000000000000000000000000600052602260045260246000fd5b600060028204905060018216806120d457607f821691505b6020821081036120e7576120e661208d565b5b50919050565b7f4552433732313a20617070726f76616c20746f2063757272656e74206f776e6560008201527f7200000000000000000000000000000000000000000000000000000000000000602082015250565b6000612149602183611ac3565b9150612154826120ed565b604082019050919050565b600060208201905081810360008301526121788161213c565b9050919050565b7f4552433732313a20617070726f76652063616c6c6572206973206e6f7420746f60008201527f6b656e206f776e6572206f7220617070726f76656420666f7220616c6c000000602082015250565b60006121db603d83611ac3565b91506121e68261217f565b604082019050919050565b6000602082019050818103600083015261220a816121ce565b9050919050565b7f4552433732313a2063616c6c6572206973206e6f7420746f6b656e206f776e6560008201527f72206f7220617070726f76656400000000000000000000000000000000000000602082015250565b600061226d602d83611ac3565b915061227882612211565b604082019050919050565b6000602082019050818103600083015261229c81612260565b9050919050565b7f4552433732313a20696e76616c696420746f6b656e2049440000000000000000600082015250565b60006122d9601883611ac3565b91506122e4826122a3565b602082019050919050565b60006020820190508181036000830152612308816122cc565b9050919050565b7f4552433732313a2061646472657373207a65726f206973206e6f74206120766160008201527f6c6964206f776e65720000000000000000000000000000000000000000000000602082015250565b600061236b602983611ac3565b91506123768261230f565b604082019050919050565b6000602082019050818103600083015261239a8161235e565b9050919050565b600081905092915050565b60006123b782611ab8565b6123c181856123a1565b93506123d1818560208601611ad4565b80840191505092915050565b60006123e982856123ac565b91506123f582846123ac565b91508190509392505050565b7f4552433732313a207472616e736665722066726f6d20696e636f72726563742060008201527f6f776e6572000000000000000000000000000000000000000000000000000000602082015250565b600061245d602583611ac3565b915061246882612401565b604082019050919050565b6000602082019050818103600083015261248c81612450565b9050919050565b7f4552433732313a207472616e7366657220746f20746865207a65726f2061646460008201527f7265737300000000000000000000000000000000000000000000000000000000602082015250565b60006124ef602483611ac3565b91506124fa82612493565b604082019050919050565b6000602082019050818103600083015261251e816124e2565b9050919050565b7f45524337323155524953746f726167653a2055524920736574206f66206e6f6e60008201527f6578697374656e7420746f6b656e000000000000000000000000000000000000602082015250565b6000612581602e83611ac3565b915061258c82612525565b604082019050919050565b600060208201905081810360008301526125b081612574565b9050919050565b60008190508160005260206000209050919050565b60006020601f8301049050919050565b600082821b905092915050565b6000600883026126197fffffffffffffffffffffffffffffffffffffffffffffffffffffffffffffffff826125dc565b61262386836125dc565b95508019841693508086168417925050509392505050565b6000819050919050565b600061266061265b61265684611b6a565b61263b565b611b6a565b9050919050565b6000819050919050565b61267a83612645565b61268e61268682612667565b8484546125e9565b825550505050565b600090565b6126a3612696565b6126ae818484612671565b505050565b5b818110156126d2576126c760008261269b565b6001810190506126b4565b5050565b601f821115612717576126e8816125b7565b6126f1846125cc565b81016020851015612700578190505b61271461270c856125cc565b8301826126b3565b50505b505050565b600082821c905092915050565b600061273a6000198460080261271c565b1980831691505092915050565b60006127538383612729565b9150826002028217905092915050565b61276c82611ab8565b67ffffffffffffffff81111561278557612784611cf2565b5b61278f82546120bc565b61279a8282856126d6565b600060209050601f8311600181146127cd57600084156127bb578287015190505b6127c58582612747565b86555061282d565b601f1984166127db866125b7565b60005b82811015612803578489015182556001820191506020850194506020810190506127de565b86831015612820578489015161281c601f891682612729565b8355505b6001600288020188555050505b505050505050565b7f4552433732313a20617070726f766520746f2063616c6c657200000000000000600082015250565b600061286b601983611ac3565b915061287682612835565b602082019050919050565b6000602082019050818103600083015261289a8161285e565b9050919050565b7f4552433732313a207472616e7366657220746f206e6f6e20455243373231526560008201527f63656976657220696d706c656d656e7465720000000000000000000000000000602082015250565b60006128fd603283611ac3565b9150612908826128a1565b604082019050919050565b6000602082019050818103600083015261292c816128f0565b9050919050565b600081519050919050565b600082825260208201905092915050565b600061295a82612933565b612964818561293e565b9350612974818560208601611ad4565b61297d81611afe565b840191505092915050565b600060808201905061299d6000830187611bff565b6129aa6020830186611bff565b6129b76040830185611e66565b81810360608301526129c9818461294f565b905095945050505050565b6000815190506129e381611a29565b92915050565b6000602082840312156129ff576129fe6119f3565b5b6000612a0d848285016129d4565b91505092915050565b7f4e487b7100000000000000000000000000000000000000000000000000000000600052601260045260246000fd5b7f4552433732313a206d696e7420746f20746865207a65726f2061646472657373600082015250565b6000612a7b602083611ac3565b9150612a8682612a45565b602082019050919050565b60006020820190508181036000830152612aaa81612a6e565b9050919050565b7f4552433732313a20746f6b656e20616c7265616479206d696e74656400000000600082015250565b6000612ae7601c83611ac3565b9150612af282612ab1565b602082019050919050565b60006020820190508181036000830152612b1681612ada565b905091905056fea26469706673582212200bba6b6f800fd18cd78306903701983e5dfce2f80772f514f4dc28de49e7825d64736f6c63430008130033",
  "immutableReferences": {},
  "source": "// SPDX-License-Identifier: UNLICENSED\r\npragma solidity ^0.8.0;\r\nimport \"@openzeppelin/contracts/token/ERC721/extensions/ERC721URIStorage.sol\";\r\nimport \"@openzeppelin/contracts/utils/Counters.sol\";\r\n\r\ncontract NFTMarketplace is ERC721URIStorage {\r\n    using Counters for Counters.Counter;\r\n\r\n    Counters.Counter private _listedItems;\r\n    Counters.Counter private _tokenIds;\r\n\r\n    constructor() ERC721(\"MNFT\",\"MNFT\"){}\r\n\r\n    function mintToken(string memory tokenURI) public payable returns (uint) {\r\n        _tokenIds.increment();\r\n        _listedItems.increment();\r\n\r\n        uint newTokenId = _tokenIds.current();\r\n        _safeMint(msg.sender,newTokenId);\r\n        _setTokenURI(newTokenId,tokenURI);\r\n\r\n        return newTokenId;\r\n    }\r\n}\r\n",
  "sourcePath": "C:\\project\\NTFmarket\\contracts\\NFTMarketplace.sol",
  "compiler": {
    "name": "solc",
    "version": "0.8.19+commit.7dd6d404.Emscripten.clang"
  },
  "schemaVersion": "3.4.13",
  "updatedAt": "2023-04-13T01:52:11.291Z",
  "networkType": "ethereum",
  "devdoc": {
    "events": {
      "Approval(address,address,uint256)": {
        "details": "Emitted when `owner` enables `approved` to manage the `tokenId` token."
      },
      "ApprovalForAll(address,address,bool)": {
        "details": "Emitted when `owner` enables or disables (`approved`) `operator` to manage all of its assets."
      },
      "Transfer(address,address,uint256)": {
        "details": "Emitted when `tokenId` token is transferred from `from` to `to`."
      }
    },
    "kind": "dev",
    "methods": {
      "approve(address,uint256)": {
        "details": "See {IERC721-approve}."
      },
      "balanceOf(address)": {
        "details": "See {IERC721-balanceOf}."
      },
      "getApproved(uint256)": {
        "details": "See {IERC721-getApproved}."
      },
      "isApprovedForAll(address,address)": {
        "details": "See {IERC721-isApprovedForAll}."
      },
      "name()": {
        "details": "See {IERC721Metadata-name}."
      },
      "ownerOf(uint256)": {
        "details": "See {IERC721-ownerOf}."
      },
      "safeTransferFrom(address,address,uint256)": {
        "details": "See {IERC721-safeTransferFrom}."
      },
      "safeTransferFrom(address,address,uint256,bytes)": {
        "details": "See {IERC721-safeTransferFrom}."
      },
      "setApprovalForAll(address,bool)": {
        "details": "See {IERC721-setApprovalForAll}."
      },
      "supportsInterface(bytes4)": {
        "details": "See {IERC165-supportsInterface}."
      },
      "symbol()": {
        "details": "See {IERC721Metadata-symbol}."
      },
      "tokenURI(uint256)": {
        "details": "See {IERC721Metadata-tokenURI}."
      },
      "transferFrom(address,address,uint256)": {
        "details": "See {IERC721-transferFrom}."
      }
    },
    "version": 1
  },
  "userdoc": {
    "kind": "user",
    "methods": {},
    "version": 1
  }
}